:100000000C947B000C94A3000C94A3000C94A3000C
:100010000C94A3000C94A3000C94A3000C94600611
:100020000C94A3000C94A3000C94A3000C94A300C4
:100030000C94A3000C94A3000C94A3000C94A300B4
:100040000C9414070C94A3000C94E2060C94BC06C8
:100050000C94A3000C94A3000C94A3000C94A30094
:100060000C945E070C94A300CE05CE053C06540606
:10007000540654065406540654065406E605F00584
:10008000F9050D062106CB09250A680AF60A530B65
:10009000C00A870BBE0BF30B0000000024002700F2
:1000A0002A000000000023002600290000000008AC
:1000B000000201000003040700000000000000002F
:1000C00001020408102040800102040810200102EF
:1000D0000408102000000000250028002B00040464
:1000E00004040404040402020202020203030303E0
:1000F000030302008C0811241FBECFEFD8E0DEBF3F
:10010000CDBF11E0A0E0B1E0E2E7FDE102C0059063
:100110000D92AA32B107D9F722E0AAE2B1E001C0FC
:100120001D92A83BB207E1F710E0CBE7D0E004C096
:100130002197FE010E94980ECA37D107C9F70E9485
:10014000C5080C94B70E0C940000E091C501F09125
:10015000C601309729F01092BC011092BB0109949E
:100160000895CF93DF93AC01E091C301F091C401F6
:100170003097F1F09091BE018091BD019817C0F0C9
:1001800090E0292F30E02617370754F4D901A45DF9
:10019000BE4FEA01C20FD31F88818C939F5FF1CFBE
:1001A0001092BE016093BD01CB01DF91CF91099404
:1001B000DF91CF910895CF92DF92EF92FF920F934C
:1001C0001F93CF93DF936C017A018B01C0E0D0E0E5
:1001D000CE15DF0589F0D8016D918D01D601ED9125
:1001E000FC910190F081E02DC6010995892B11F455
:1001F0007E0102C02196ECCFC701DF91CF911F9104
:100200000F91FF90EF90DF90CF900895FC01538DF8
:10021000448D252F30E0842F90E0821B930B5417E0
:1002200010F0CF96089501970895FC01918D828D6D
:10023000981761F0828DDF01A80FB11D5D968C913A
:10024000928D9F5F9F73928F90E008958FEF9FEF45
:100250000895FC01918D828D981731F0828DE80F01
:10026000F11D858D90E008958FEF9FEF0895FC01BB
:10027000918D228D892F90E0805C9F4F821B910988
:100280008F73992708958FE092E00E94370121E053
:10029000892B09F420E0822F0895FC01848DDF0171
:1002A000A80FB11DA35ABF4F2C91848D90E00196E9
:1002B0008F739927848FA689B7892C93A089B189D8
:1002C0008C9180648C93938D848D981306C00288E2
:1002D000F389E02D80818F7D80830895EF92FF92D6
:1002E0000F931F93CF93DF93EC0181E0888F9B8D59
:1002F0008C8D981305C0E889F989808185FD24C01B
:10030000F62E0B8D10E00F5F1F4F0F731127E02E9D
:100310008C8DE8120CC00FB607FCFACFE889F9897A
:10032000808185FFF5CFCE010E944D01F1CF8B8DED
:10033000FE01E80FF11DE35AFF4FF0820B8FEA89AF
:10034000FB898081806207C0EE89FF896083E8892C
:10035000F98980818064808381E090E0DF91CF9192
:100360001F910F91FF90EF900895CF93DF93EC01D1
:10037000888D8823C9F0EA89FB89808185FD05C0C5
:10038000A889B9898C9186FD0FC00FB607FCF5CFFF
:10039000808185FFF2CFA889B9898C9185FFEDCF47
:1003A000CE010E944D01E7CFDF91CF91089580E00B
:1003B00090E0892B29F00E94430181110C940000E8
:1003C0000895833081F028F4813099F08230A1F0D3
:1003D00008958730A9F08830B9F08430D1F4809145
:1003E00080008F7D03C0809180008F778093800094
:1003F000089584B58F7702C084B58F7D84BD08953C
:100400008091B0008F7703C08091B0008F7D809382
:10041000B0000895CF93DF93282F30E0F901E45521
:10042000FF4F8491F901E054FF4FD491F901E2525A
:10043000FF4FC491CC2391F081110E94E101EC2F78
:10044000F0E0EE0FFF1FEE55FF4FA591B491EC9138
:10045000ED2381E090E021F480E002C080E090E0B4
:10046000DF91CF9108951F93CF93DF93282F30E032
:10047000F901E455FF4F8491F901E054FF4FD49105
:10048000F901E252FF4FC491CC23C9F0162F81111C
:100490000E94E101EC2FF0E0EE0FFF1FEC52FF4F46
:1004A000A591B4918FB7F894111105C09C91ED2FCF
:1004B000E095E92302C0EC91ED2BEC938FBFDF9127
:1004C000CF911F91089590910401981324C0E2EFF9
:1004D000F0E0E4919FEF90930401E130B9F098F0DF
:1004E000E230C9F4909170009D7F9093700091E08C
:1004F0009093B0009091B100987F94609093B10078
:100500001092B30008C010926E0005C090916F0069
:100510009D7F90936F0060E00C943302CF93DF9344
:1005200090E0FC01E054FF4F2491FC01E252FF4FA8
:100530008491882361F190E0880F991FFC01E856AF
:10054000FF4FC591D491FC01EC52FF4FA591B4919E
:10055000611109C09FB7F894888120958223888310
:10056000EC912E230BC0623061F49FB7F894388170
:10057000822F809583238883EC912E2B2C939FBF11
:1005800006C08FB7F894E8812E2B28838FBFDF91A8
:10059000CF9108958F929F92AF92BF92CF92DF92A8
:1005A000EF92FF92CF9320910401233021F02F3F4F
:1005B00009F0F0C104C0E2EFF0E0C49172C023E0A2
:1005C00020930401E2EFF0E0C491CF3F09F4E2C1CF
:1005D000C13009F1C23009F441C0C11162C014BC7C
:1005E00015BC24B5226024BD25B5216025BDE1EEF2
:1005F000F0E0E491F0E0EE0FFF1FEC52FF4F259189
:1006000034913093020220930102E3ECF0E0E49194
:10061000E093000248C01092800010928100209167
:100620008100286020938100209181002160209327
:100630008100E1EEF0E0E491F0E0EE0FFF1FEC52FC
:10064000FF4F259134913093FF012093FE01E3EC9D
:10065000F0E0E491E093FD01C1E025C01092B0000C
:100660001092B1002091B00022602093B000209140
:10067000B10021602093B100E1EEF0E0E491F0E000
:10068000EE0FFF1FEC52FF4F259134913093FC0188
:100690002093FB01E3ECF0E0E491E093FA01C2E087
:1006A00002C0C7FD77C14C0161E083E00E948E0269
:1006B000A12CB12C8C2F8D7F09F0A9C060E079E0CE
:1006C0008DE390E0A50194010E94790E69017A0101
:1006D000BA01A90141505109610971094F3F510502
:1006E0006105710509F008F445C060E271EA87E030
:1006F00090E0A50194010E94790EBA01A901415030
:10070000510961097109C230E9F44F3F5105610592
:10071000710509F008F43CC168E478EE81E090E0EE
:10072000A50194010E94790EBA01A9014150510915
:10073000610971094F3F51056105710509F0A8F57F
:1007400083E05EC04F3F510561057105A9F0A0F03F
:1007500064E274EF80E090E0A50194010E94790EBC
:10076000BA01A9014150510961097109CC2309F469
:10077000BEC006C181E001C082E0CC2389F040C048
:10078000D701C6012AE0B595A795979587952A9533
:10079000D1F7AC01BD01415051096109710985E0F2
:1007A00095B5987F892B85BD66C064E274EF80E0C3
:1007B00090E0A50194010E94790EBA01A90141506F
:1007C0005109610971094F3F51056105710509F032
:1007D00008F48BC062E17AE780E090E0A501940123
:1007E0000E94790EBA01A9014150510961097109AC
:1007F0004F3F51056105710511F008F097C085E084
:100800009091B100987F892B8093B1002EC060E059
:1008100079E08DE390E0A50194010E94790EBA0180
:10082000A90141505109610971094115510581E042
:100830006807710580F064E274EF80E090E0A50144
:1008400094010E94790EBA01A90141505109610930
:10085000710993E001C091E0C13039F480918100C9
:10086000887F892B8093810018C0C130B1F0C230DD
:1008700049F1C1118FC047BD8FEF9FEFDC0180931D
:100880000B0290930C02A0930D02B0930E02809184
:100890006E00826080936E007DC05093890040930B
:1008A00088008FEF9FEFDC0180930702909308028E
:1008B000A0930902B0930A0280916F008260809336
:1008C0006F0068C04093B3008FEF9FEFDC0180930F
:1008D000030290930402A0930502B0930602809154
:1008E000700082608093700055C084E089CF4F3FD4
:1008F000510561057105C1F0B8F069E07DE380E064
:1009000090E0A50194010E94790EBA01A90141501D
:100910005109610971094F3F51056105710511F0D8
:1009200008F02ECF84E03CCF83E03ACF69E07DE34E
:1009300080E090E0A50194010E94790EBA01A9011E
:1009400041505109610971094F3F51056105710518
:10095000A9F0A0F0D701C6013AE0B595A795979503
:1009600087953A95D1F7AC01BD0141505109610914
:100970007109CC2309F413CF87E042CF86E0FDCE86
:100980004F3F51056105710509F080F684E0F5CE11
:1009900082E036CFCF91FF90EF90DF90CF90BF9065
:1009A000AF909F908F900895CF93DF93EC0161E01B
:1009B00086E00E948E02209711F460E004C0CF3FD1
:1009C000D10531F461E086E0DF91CF910C943302E0
:1009D000E2EBF0E0E491E330F9F048F4E130B9F013
:1009E000E230A1F584B5806284BDC8BD34C0E73073
:1009F000E9F0E83019F1E43049F580918000806237
:100A000080938000D0938B00C0938A0024C084B56B
:100A1000806884BDC7BD1FC08091800080688093BE
:100A20008000D0938900C093880015C08091B000E9
:100A300080688093B000C093B3000DC08091B00077
:100A400080628093B000C093B40005C0C038D10567
:100A50000CF0B8CFB2CFDF91CF91089585ED8093A0
:100A6000BC008091BC0084FDFCCF1092BA010895B7
:100A700040916C01262F30E0240F311D21323105C9
:100A8000DCF42091BA012430C9F4FC0180E090E04C
:100A9000861758F430916C012191DC01A45BBE4FA4
:100AA000A30FB11D2C930196F3CF80916C01680FB9
:100AB00060936C0180E0089581E0089582E00895DC
:100AC0000895E091BE018091BD01E81730F4F0E097
:100AD000E45DFE4F808190E008958FEF9FEF0895D1
:100AE0009091BE018091BD01981750F4E92FF0E07C
:100AF000E45DFE4F208130E09F5F9093BE0102C015
:100B00002FEF3FEFC90108958091BD0190E0209142
:100B1000BE01821B91090895CF93DF9300D0CDB71A
:100B2000DEB7CB01642F49835A830E94380549817F
:100B3000842F5A81952F0F900F90DF91CF910895B8
:100B4000CF93DF931F92CDB7DEB7698361E0CE010B
:100B500001960E94380581E090E00F90DF91CF91DF
:100B60000895089580E090E0089580912B018A30E7
:100B700019F08C3019F0089562E002C060912A01EA
:100B80008CEA92E00C94A005EF92FF920F931F93D2
:100B9000CF93DF93D3E0C1E044E0F42E9091BD0108
:100BA0008091BE01981709F482C08CEA92E00E94FD
:100BB000700580932B0190E0FC013A97EF30F1052E
:100BC00008F072C0EC5CFF4F0C94980E8CEA92E037
:100BD0000E947005809100018C278093000164C001
:100BE0008CEA92E00E947005682F8AE00E9433022E
:100BF0005BC08CEA92E00E9470058093CC01811169
:100C000003C0C093D00106C0813021F41092D001FE
:100C1000F092CC011092CB0147C08CEA92E00E9486
:100C200070058093CE01811103C0C093CF0106C02F
:100C3000813021F41092CF01D093CE011092CD01DA
:100C400033C08CEA92E00E9470058138910559F01A
:100C50008B38910509F0A2CF8CEA92E00E947005D2
:100C6000809301019BCF8CEA92E00E9470059093E3
:100C700003018093020192CF87E00E940A02E82ECE
:100C800088E00E940A02880F991F8C010E0D111D29
:100C900089E00E940A02880F991F880F991F800F10
:100CA000911D80932A017ACF10922B0177CFDF918B
:100CB000CF911F910F91FF90EF9008950E94B20E77
:100CC0001F920F920FB60F9211242F933F934F93C1
:100CD0005F936F937F938F939F93AF93BF93EF93A4
:100CE000FF938091030290910402A0910502B091BC
:100CF0000602892B8A2B8B2B51F18091FA01E0910E
:100D0000FB01F091FC01908189278083809103028F
:100D100090910402A0910502B091060218161906DE
:100D20001A061B06C4F48091030290910402A0915C
:100D30000502B09106020197A109B109809303024F
:100D400090930402A0930502B093060204C0809120
:100D500004010E946302FF91EF91BF91AF919F91B7
:100D60008F917F916F915F914F913F912F910F9054
:100D70000FBE0F901F9018951F920F920FB60F92F3
:100D800011242F933F934F935F936F937F938F9390
:100D90009F93AF93BF93EF93FF938FE092E00E94F6
:100DA0004D01FF91EF91BF91AF919F918F917F91F5
:100DB0006F915F914F913F912F910F900FBE0F90C8
:100DC0001F9018951F920F920FB60F9211242F9318
:100DD0008F939F93EF93FF93E0911F02F091200276
:100DE0008081E0912502F091260282FD12C090815F
:100DF000809128028F5F8F7320912902821751F012
:100E0000E0912802F0E0E15FFD4F958F809328028A
:100E100001C08081FF91EF919F918F912F910F9051
:100E20000FBE0F901F9018951F920F920FB60F9242
:100E300011242F933F938F939F93AF93BF938091F0
:100E4000C7019091C801A091C901B091CA01309128
:100E5000B70126E0230F2D3720F40296A11DB11D06
:100E600005C029E8230F0396A11DB11D2093B701EA
:100E70008093C7019093C801A093C901B093CA01A0
:100E80008091B3019091B401A091B501B091B601E8
:100E90000196A11DB11D8093B3019093B401A0935D
:100EA000B501B093B601BF91AF919F918F913F91E2
:100EB0002F910F900FBE0F901F9018951F920F92B9
:100EC0000FB60F9211242F933F934F935F936F931D
:100ED0007F938F939F93AF93BF93EF93FF938091F3
:100EE000B900887F803609F49CC068F5883209F41F
:100EF0005BC090F4803109F454C038F4882309F4BD
:100F0000F6C0883009F44DC0F6C0883109F44CC0F1
:100F1000803209F45DC0EFC0803409F468C048F441
:100F2000803309F455C0883309F0E5C080938F0100
:100F3000D8C0803509F44FC0883509F45DC08834C5
:100F400009F0D9C0D6C0883909F4C7C0A8F48837D9
:100F500009F467C038F4883609F463C0803709F4AF
:100F600060C0C9C0883809F4B8C0803909F45FC0CE
:100F7000803809F0C0C05BC0803B09F486C038F4FB
:100F8000803A09F466C0883A09F47FC0B4C0803C56
:100F900009F4A7C0883C09F4A4C0883B09F48AC0BE
:100FA000AAC08091B20110C09091B1018091B001AE
:100FB000981770F5E091B10181E08E0F8093B10137
:100FC000F0E0E057FE4F80818093BB0085EC86C047
:100FD00080938F018EC0E091B10181E08E0F8093EC
:100FE000B1018091BB00F0E0E057FE4F808390910B
:100FF000B1018091B0016EC0E091B10181E08E0F2E
:101000008093B1018091BB00F0E0E057FE4F8083F8
:101010008091B90181116DC081E08093B80184EAAB
:1010200061C083E08093BA0110928E01CFCF80918E
:101030008E01803208F051C0E0918E0181E08E0F68
:1010400080938E018091BB00F0E0E259FE4F8083D7
:10105000BDCF85EC8093BC001092BA0180918E01C7
:10106000803230F4E0918E01F0E0E259FE4F1082C0
:1010700060918E0170E0E091BF01F091C0018EE6B9
:1010800091E0099510928E0136C084E08093BA01F8
:1010900010926D0110926C01E091C101F091C201BA
:1010A000099580916C01811105C081E080936C01EC
:1010B00010924C01E0916D0181E08E0F80936D01E3
:1010C000F0E0E45BFE4F80818093BB0090916D0166
:1010D00080916C01981708F479CF85E88093BC0063
:1010E0000AC085EC8093BC001092BA0104C0109233
:1010F0008F010E942E05FF91EF91BF91AF919F91BB
:101100008F917F916F915F914F913F912F910F90B0
:101110000FBE0F901F901895EFE0F2E0138212823D
:1011200088EE93E0A0E0B0E084839583A683B78344
:1011300029E031E03183208325EC30E035872487B6
:1011400024EC30E03787268720EC30E0318B208B91
:1011500021EC30E0338B228B22EC30E0358B248B7A
:1011600026EC30E0378B268B118E128E138E148E68
:10117000ECEAF2E01382128284839583A683B7831C
:101180008BE191E0918380830895789484B58260A7
:1011900084BD84B5816084BD85B5826085BD85B51B
:1011A000816085BD80916E00816080936E00109299
:1011B0008100809181008260809381008091810014
:1011C00081608093810080918000816080938000A5
:1011D0008091B10084608093B1008091B000816003
:1011E0008093B00080917A00846080937A0080912F
:1011F0007A00826080937A0080917A008E7F80935B
:101200007A0080917A00806880937A001092C10001
:10121000809100018823A9F1E0911F02F091200242
:1012200082E08083E0911B02F0911C021082E09129
:101230001D02F0911E0288E0808310922702E09147
:101240002302F091240286E08083E0912102F09154
:101250002202808180618083E0912102F09122024C
:10126000808188608083E0912102F0912202808158
:1012700080688083E0912102F091220280818F7D3D
:10128000808384E18093BA0085EA90E09093C20164
:101290008093C10181EB90E09093C0018093BF01E6
:1012A0001092BE011092BD011092BC011092BB01C0
:1012B0001092BA0181E08093B9011092B80161E007
:1012C00082E10E94330261E083E10E943302809157
:1012D000B9008E7F8093B9008091B9008D7F809393
:1012E000B90080E28093B80085E48093BC0084EC70
:1012F00095E09093C4018093C30185EB95E09093B2
:10130000C6018093C50160E087E00E948E0260E024
:1013100088E00E948E0260E089E00E948E0261E017
:101320008AE00E948E0261E083E00E948E0261E00A
:1013300086E00E948E0282E08093CC011BE0212E89
:10134000332433942FB7F8948091C7019091C8014A
:10135000A091C901B091CA012FBF8093DE01909383
:10136000DF01A093E001B093E1012092D1018091CF
:10137000D00181116AC2E091CC018E2F90E0FC0176
:101380003297E930F10508F060C2ED5BFF4F8091C4
:10139000CB010C94980E811113C08091DE019091C5
:1013A000DF01A091E001B091E1018093F2019093FF
:1013B000F301A093F401B093F5013092CB0145C243
:1013C0000091DE011091DF012091E0013091E101F7
:1013D0008091F2019091F301A091F401B091F50197
:1013E000081B190B2A0B3B0B6091010170E08091E7
:1013F00002019091030197FD019695958795869F2F
:10140000A001879F500D969F500D1124CA01550FC2
:10141000AA0BBB0B80179107A207B30740F483E028
:101420000E9463021092CC011092CB010EC284E69E
:1014300090E00E94430E609FC001619F900D709FDD
:10144000900D112488519C4F96C1882309F4A5CF93
:101450000091DE011091DF012091E0013091E10166
:101460008091F2019091F301A091F401B091F50106
:10147000081B190B2A0B3B0B6091010170E0809156
:1014800002019091030197FD019695958795869F9E
:10149000A001879F500D969F500D1124CA01550F32
:1014A000AA0BBB0B80179107A207B30708F4B7CFAD
:1014B00084E690E00E94430E609FA001619F500D62
:1014C000709F500D112480ED97E0841B950B53C144
:1014D000882309F462CF4091DE015091DF016091D1
:1014E000E0017091E1018091F2019091F301A091EE
:1014F000F401B091F5018A019B01081B190B2A0B1D
:101500003B0BC901B8014091020150910301E091E8
:101510000101F0E09A0157FF02C02F5F3F4F359560
:1015200027952E9F80012F9F100D3E9F100D112497
:10153000012E000C220B330B06171707280739075B
:1015400008F46DCF9A0157FF02C02D5F3F4F3595CC
:101550002795359527952E9F80012F9F100D3E9F33
:10156000100D11249801110F440B550B0E94570EBA
:101570002F5F2093CB0120FF36C080ED97E0FBC0AA
:10158000811112C08091DE019091DF01A091E001F4
:10159000B091E1018093F2019093F301A093F401E3
:1015A000B093F5013092CB018091CB01813009F0ED
:1015B0004CC18091DE019091DF01A091E001B091DA
:1015C000E1014091F2015091F3016091F4017091B9
:1015D000F501841B950BA60BB70B85369105A1056C
:1015E000B10508F01CCF88EE93E0C5C0882309F44C
:1015F000D4CEC090DE01D090DF01E090E001F09009
:10160000E1018091F2019091F301A091F401B09178
:10161000F501C81AD90AEA0AFB0AC0910201D09161
:1016200003010091010110E0C701B6010E941F0DE6
:101630004B015C01BE010D2E000C880B990B0E9422
:10164000210D20E030E040EC5FE30E94610D2B01B2
:101650003C01B801012E000C880B990B0E94210D52
:101660009B01AC01C301B2010E94610D9B01AC0161
:10167000C501B4010E945C0D18160CF4D0CED7FD44
:101680002396D595C795D595C795C09F9001C19FC5
:10169000300DD09F300D1124032E000C440B550B40
:1016A000C701B60163CF811112C08091DE01909114
:1016B000DF01A091E001B091E1018093F2019093EC
:1016C000F301A093F401B093F5013092CB01809126
:1016D000CB01813009F0B9C08091DE019091DF012A
:1016E000A091E001B091E1014091F2015091F3012C
:1016F0006091F4017091F501841B950BA60BB70B5B
:1017000085369105A105B10508F089CE36CF811146
:1017100012C08091DE019091DF01A091E001B091B3
:10172000E1018093F2019093F301A093F401B0934F
:10173000F5013092CB018091CB01813009F085C059
:101740008091DE019091DF01A091E001B091E10173
:101750004091F2015091F3016091F4017091F50113
:10176000841B950BA60BB70B0B97A105B10508F0D1
:1017700056CE8CED95E00E94CA0267C0811112C05E
:101780008091DE019091DF01A091E001B091E10133
:101790008093F2019093F301A093F401B093F501CB
:1017A0003092CB018091CB01813009F04EC0809105
:1017B000DE019091DF01A091E001B091E101409143
:1017C000F2015091F3016091F4017091F501841BD5
:1017D000950BA60BB70B0B97A105B10508F01FCE13
:1017E0008EEE92E0C8CF811112C08091DE019091FF
:1017F000DF01A091E001B091E1018093F2019093AB
:10180000F301A093F401B093F5013092CB018091E4
:10181000CB018130D1F48091DE019091DF01A09164
:10182000E001B091E1014091F2015091F30160912A
:10183000F4017091F501841B950BA60BB70B029771
:10184000A105B10508F0EBCD94CF8091CF018111B6
:10185000F3C08091CE01833009F483C0843009F451
:10186000B9C0823009F0E8C08091CD01C090DE019E
:10187000D090DF01E090E001F090E10181110BC018
:10188000C092F601D092F701E092F801F092F901CE
:101890003092CD0166C08091F6019091F701A09140
:1018A000F801B091F901C81AD90AEA0AFB0AC091F5
:1018B0000201D09103010091010110E0C701B601BE
:1018C0000E941F0D4B015C01BE010D2E000C880B08
:1018D000990B0E94210D20E030E040EC5FE30E9474
:1018E000610D2B013C01B801012E000C880B990BF6
:1018F0000E94210D9B01AC01C301B2010E94610D48
:101900009B01AC01C501B4010E945C0D181644F4A2
:1019100086E00E9463021092CE011092CD0121C098
:10192000D7FD2396D595C795D595C795C09F9001AE
:10193000C19F300DD09F300D1124032E000C440B9D
:10194000550BC701B6010E94570E2F5F2093CD01A2
:1019500020FF03C080E890E002C080E090E00E9499
:10196000D4042091CD018091DE019091DF01A091FE
:10197000E001B091E1012223C9F14091F6015091BB
:10198000F7016091F8017091F9018C019D01041B30
:10199000150B260B370BB901A8018091020190911C
:1019A000030197FD019695958795092E000CAA0BCA
:1019B000BB0B84179507A607B70738F480E090E0C3
:1019C0000E94D4041092CE0137C080E890E00E94BB
:1019D000D40432C02091CD018091DE019091DF01CD
:1019E000A091E001B091E10121110BC08093F601BB
:1019F0009093F701A093F801B093F9013092CD01D3
:101A00001BC04091F6015091F7016091F80170916F
:101A1000F9018C019D01041B150B260B370BB90135
:101A2000A801809102019091030197FD039695957D
:101A3000879595958795B9CF0E94D70183CCE89477
:101A400009C097FB3EF490958095709561957F4F06
:101A50008F4F9F4F9923A9F0F92F96E9BB279395B4
:101A6000F695879577956795B795F111F8CFFAF4C4
:101A7000BB0F11F460FF1BC06F5F7F4F8F4F9F4FF5
:101A800016C0882311F096E911C0772321F09EE853
:101A9000872F762F05C0662371F096E8862F70E0B9
:101AA00060E02AF09A95660F771F881FDAF7880F93
:101AB0009695879597F908950E94CE0D08F48FEFBB
:101AC00008950E94740D0C94090E0E94FB0D38F0CD
:101AD0000E94020E20F0952311F00C94F20D0C944C
:101AE000F80D11240C943D0E0E941A0E70F3959F70
:101AF000C1F3950F50E0551F629FF001729FBB2705
:101B0000F00DB11D639FAA27F00DB11DAA1F649FA0
:101B10006627B00DA11D661F829F2227B00DA11D53
:101B2000621F739FB00DA11D621F839FA00D611DD9
:101B3000221F749F3327A00D611D231F849F600DFA
:101B4000211D822F762F6A2F11249F5750409AF023
:101B5000F1F088234AF0EE0FFF1FBB1F661F771FAF
:101B6000881F91505040A9F79E3F510580F00C947A
:101B7000F20D0C943D0E5F3FE4F3983ED4F386954E
:101B800077956795B795F795E7959F5FC1F7FE2B1A
:101B9000880F911D9695879597F90895990F0008DC
:101BA000550FAA0BE0E8FEEF16161706E807F9072F
:101BB000C0F012161306E407F50798F0621B730BCA
:101BC000840B950B39F40A2661F0232B242B252B4B
:101BD00021F408950A2609F4A140A6958FEF811DEE
:101BE000811D089597F99F6780E870E060E008958F
:101BF0009FEF80EC089500240A9416161706180625
:101C00000906089500240A94121613061406050600
:101C10000895092E0394000C11F4882352F0BB0F91
:101C200040F4BF2B11F460FF04C06F5F7F4F8F4FF4
:101C30009F4F089557FD9058440F551F59F05F3F2F
:101C400071F04795880F97FB991F61F09F3F79F0DE
:101C500087950895121613061406551FF2CF469560
:101C6000F1DF08C0161617061806991FF1CF8695E2
:101C70007105610508940895E894BB2766277727C6
:101C8000CB0197F9089597FB072E16F4009407D01F
:101C900077FD09D00E949E0E07FC05D03EF490957A
:101CA00081959F4F0895709561957F4F0895A1E2AA
:101CB0001A2EAA1BBB1BFD010DC0AA1FBB1FEE1FC6
:101CC000FF1FA217B307E407F50720F0A21BB30B11
:101CD000E40BF50B661F771F881F991F1A9469F78D
:101CE00060957095809590959B01AC01BD01CF01E9
:101CF0000895052E97FB1EF400940E94900E57FD48
:101D000007D00E94570E07FC03D04EF40C94900E9F
:101D100050954095309521953F4F4F4F5F4F089517
:101D200090958095709561957F4F8F4F9F4F089547
:101D3000EE0FFF1F0590F491E02D0994AA1BBB1B29
:101D400051E107C0AA1FBB1FA617B70710F0A61BBB
:101D5000B70B881F991F5A95A9F780959095BC01DC
:101D6000CD01089581E090E0F8940C94B70EF894BA
:021D7000FFCFA3
:101D720001321400FF000000006E01DB000601B515
:101D82000137011501290100000000A0058C05B2F0
:0A1D92000560058405700561050079
:00000001FF
