:100000000C947C000C94A4000C94A4000C94A40008
:100010000C94A4000C94A4000C94A4000C946E0600
:100020000C94A4000C94A4000C94A4000C94A400C0
:100030000C94A4000C94A4000C94A4000C94A400B0
:100040000C9422070C94A4000C94F0060C94CA069D
:100050000C94A4000C94A4000C94A4000C94A40090
:100060000C946C070C94A400D005D0053E066106E4
:10007000610661066106610661066106E805F20532
:10008000FB050F062306DB09350A780A070B640B0C
:10009000D10A980BCD0B020C350C00000000240097
:1000A00027002A000000000023002600290000008D
:1000B0000008000201000003040700000000000027
:1000C00000000102040810204080010204081020F2
:1000D00001020408102000000000250028002B0069
:1000E00004040404040404040202020202020303DE
:1000F0000303030302009A0811241FBECFEFD8E0C8
:10010000DEBFCDBF11E0A0E0B1E0E2E1FFE102C05F
:1001100005900D92AE32B107D9F722E0AEE2B1E020
:1001200001C01D92AC3BB207E1F710E0CCE7D0E094
:1001300004C02197FE010E94680FCB37D107C9F791
:100140000E94D3080C94870F0C940000E091C90121
:10015000F091CA01309729F01092C0011092BF01AE
:1001600009940895CF93DF93AC01E091C701F0911A
:10017000C8013097F1F09091C2018091C1019817A8
:10018000C0F090E0292F30E02617370754F4D9014A
:10019000A05DBE4FEA01C20FD31F88818C939F5F81
:1001A000F1CF1092C2016093C101CB01DF91CF91D9
:1001B0000994DF91CF910895CF92DF92EF92FF9251
:1001C0000F931F93CF93DF936C017A018B01C0E0F3
:1001D000D0E0CE15DF0589F0D8016D918D01D601F3
:1001E000ED91FC910190F081E02DC6010995892BDC
:1001F00011F47E0102C02196ECCFC701DF91CF91AF
:100200001F910F91FF90EF90DF90CF900895FC0128
:10021000538D448D252F30E0842F90E0821B930B6B
:10022000541710F0CF96089501970895FC01918D11
:10023000828D981761F0828DDF01A80FB11D5D9648
:100240008C91928D9F5F9F73928F90E008958FEFB6
:100250009FEF0895FC01918D828D981731F0828D6A
:10026000E80FF11D858D90E008958FEF9FEF0895C1
:10027000FC01918D228D892F90E0805C9F4F821B25
:1002800091098F739927089583E192E00E943801C4
:1002900021E0892B09F420E0822F0895FC01848D50
:1002A000DF01A80FB11DA35ABF4F2C91848D90E0A0
:1002B00001968F739927848FA689B7892C93A0897B
:1002C000B1898C9180648C93938D848D981306C032
:1002D0000288F389E02D80818F7D80830895EF92DD
:1002E000FF920F931F93CF93DF93EC0181E0888FF0
:1002F0009B8D8C8D981305C0E889F989808185FDD7
:1003000024C0F62E0B8D10E00F5F1F4F0F731127C7
:10031000E02E8C8DE8120CC00FB607FCFACFE889EE
:10032000F989808185FFF5CFCE010E944E01F1CF82
:100330008B8DFE01E80FF11DE35AFF4FF0820B8F0A
:10034000EA89FB898081806207C0EE89FF8960832A
:10035000E889F98980818064808381E090E0DF9181
:10036000CF911F910F91FF90EF900895CF93DF935E
:10037000EC01888D8823C9F0EA89FB89808185FD9D
:1003800005C0A889B9898C9186FD0FC00FB607FCFE
:10039000F5CF808185FFF2CFA889B9898C9185FF3F
:1003A000EDCFCE010E944E01E7CFDF91CF910895AE
:1003B00080E090E0892B29F00E94440181110C9487
:1003C00000000895833081F028F4813099F0823064
:1003D000A1F008958730A9F08830B9F08430D1F4C5
:1003E000809180008F7D03C0809180008F77809303
:1003F0008000089584B58F7702C084B58F7D84BD59
:1004000008958091B0008F7703C08091B0008F7DF8
:100410008093B0000895CF93DF93282F30E0F90147
:10042000E255FF4F8491F901EE53FF4FD491F9014A
:10043000E052FF4FC491CC2391F081110E94E20160
:10044000EC2FF0E0EE0FFF1FEC55FF4FA591B4919C
:10045000EC91ED2381E090E021F480E002C080E0A7
:1004600090E0DF91CF9108951F93CF93DF93282FD2
:1004700030E0F901E255FF4F8491F901EE53FF4F4F
:10048000D491F901E052FF4FC491CC23C9F0162F4B
:1004900081110E94E201EC2FF0E0EE0FFF1FEA5203
:1004A000FF4FA591B4918FB7F894111105C09C919D
:1004B000ED2FE095E92302C0EC91ED2BEC938FBF7B
:1004C000DF91CF911F91089590910401981324C05A
:1004D000E4EFF0E0E4919FEF90930401E130B9F094
:1004E00098F0E230C9F4909170009D7F9093700075
:1004F00091E09093B0009091B100987F94609093B8
:10050000B1001092B30008C010926E0005C0909127
:100510006F009D7F90936F0060E00C943402CF9346
:10052000DF9390E0FC01EE53FF4F2491FC01E05279
:10053000FF4F8491882361F190E0880F991FFC019F
:10054000E656FF4FC591D491FC01EA52FF4FA591A9
:10055000B491611109C09FB7F894888120958223D6
:100560008883EC912E230BC0623061F49FB7F8941E
:100570003881822F809583238883EC912E2B2C93B6
:100580009FBF06C08FB7F894E8812E2B28838FBFBA
:10059000DF91CF9108958F929F92AF92BF92CF92A9
:1005A000DF92EF92FF92CF9320910401233021F04C
:1005B0002F3F09F0F0C104C0E4EFF0E0C49172C035
:1005C00023E020930401E4EFF0E0C491CF3F09F46D
:1005D000E2C1C13009F1C23009F441C0C11162C0A9
:1005E00014BC15BC24B5226024BD25B5216025BDF1
:1005F000E3EEF0E0E491F0E0EE0FFF1FEA52FF4F70
:10060000259134913093060220930502E5ECF0E049
:10061000E491E093040248C010928000109281009F
:100620002091810028602093810020918100216029
:1006300020938100E3EEF0E0E491F0E0EE0FFF1F85
:10064000EA52FF4F25913491309303022093020226
:10065000E5ECF0E0E491E0930102C1E025C01092E6
:10066000B0001092B1002091B00022602093B00041
:100670002091B10021602093B100E3EEF0E0E4911D
:10068000F0E0EE0FFF1FEA52FF4F259134913093B7
:1006900000022093FF01E5ECF0E0E491E093FE011D
:1006A000C2E002C0C7FD77C14C0161E083E00E9457
:1006B0008F02A12CB12C8C2F8D7F09F0A9C060E096
:1006C00079E08DE390E0A50194010E94CD0D6901D0
:1006D0007A01BA01A90141505109610971094F3FDD
:1006E00051056105710509F008F445C060E271EA41
:1006F00087E090E0A50194010E94CD0DBA01A90107
:100700004150510961097109C230E9F44F3F510567
:100710006105710509F008F43CC168E478EE81E0F8
:1007200090E0A50194010E94CD0DBA01A9014150AC
:100730005109610971094F3F51056105710509F0C2
:10074000A8F583E05EC04F3F510561057105A9F032
:10075000A0F064E274EF80E090E0A50194010E94B3
:10076000CD0DBA01A9014150510961097109CC238C
:1007700009F4BEC006C181E001C082E0CC2389F04B
:1007800040C0D701C6012AE0B595A79597958795F2
:100790002A95D1F7AC01BD01415051096109710998
:1007A00085E095B5987F892B85BD66C064E274EFBE
:1007B00080E090E0A50194010E94CD0DBA01A9014D
:1007C00041505109610971094F3F5105610571059A
:1007D00009F008F48BC062E17AE780E090E0A501BF
:1007E00094010E94CD0DBA01A9014150510961093E
:1007F00071094F3F51056105710511F008F097C06F
:1008000085E09091B100987F892B8093B1002EC034
:1008100060E079E08DE390E0A50194010E94CD0DA8
:10082000BA01A901415051096109710941155105E8
:1008300081E06807710580F064E274EF80E090E089
:10084000A50194010E94CD0DBA01A90141505109A1
:100850006109710993E001C091E0C13039F48091E0
:100860008100887F892B8093810018C0C130B1F04E
:10087000C23049F1C1118FC047BD8FEF9FEFDC013E
:1008800080930F0290931002A0931102B093120272
:1008900080916E00826080936E007DC050938900CD
:1008A000409388008FEF9FEFDC0180930B029093C1
:1008B0000C02A0930D02B0930E0280916F00826033
:1008C00080936F0068C04093B3008FEF9FEFDC010F
:1008D0008093070290930802A0930902B0930A0242
:1008E0008091700082608093700055C084E089CF51
:1008F0004F3F510561057105C1F0B8F069E07DE336
:1009000080E090E0A50194010E94CD0DBA01A901FB
:1009100041505109610971094F3F51056105710548
:1009200011F008F02ECF84E03CCF83E03ACF69E0AD
:100930007DE380E090E0A50194010E94CD0DBA0115
:10094000A90141505109610971094F3F51056105E4
:100950007105A9F0A0F0D701C6013AE0B595A795B9
:10096000979587953A95D1F7AC01BD014150510952
:1009700061097109CC2309F413CF87E042CF86E0E7
:10098000FDCE4F3F51056105710509F080F684E009
:10099000F5CE82E036CFCF91FF90EF90DF90CF90F1
:1009A000BF90AF909F908F900895CF93DF93EC010D
:1009B00061E086E00E948F02209711F460E004C09D
:1009C000CF3FD10531F461E086E0DF91CF910C9407
:1009D0003402E4EBF0E0E491E330F9F048F4E13084
:1009E000B9F0E230A1F584B5806284BDC8BD34C0E1
:1009F000E730E9F0E83019F1E43049F58091800002
:100A0000806280938000D0938B00C0938A0024C0C2
:100A100084B5806884BDC7BD1FC080918000806898
:100A200080938000D0938900C093880015C0809186
:100A3000B00080688093B000C093B3000DC0809177
:100A4000B00080628093B000C093B40005C0C0388D
:100A5000D1050CF0B8CFB2CFDF91CF91089585EDDD
:100A60008093BC008091BC0084FDFCCF1092BE013D
:100A7000089540917001262F30E0240F311D21325E
:100A80003105DCF42091BE012430C9F4FC0180E082
:100A900090E0861758F4309170012191DC01A05B41
:100AA000BE4FA30FB11D2C930196F3CF809170011F
:100AB000680F6093700180E0089581E0089582E0FE
:100AC00008950895E091C2018091C101E81730F4C2
:100AD000F0E0E05DFE4F808190E008958FEF9FEFA2
:100AE00008959091C2018091C101981750F4E92FA7
:100AF000F0E0E05DFE4F208130E09F5F9093C20107
:100B000002C02FEF3FEFC90108958091C10190E02D
:100B10002091C201821B91090895CF93DF9300D0E9
:100B2000CDB7DEB7CB01642F49835A830E943905C4
:100B30004981842F5A81952F0F900F90DF91CF918B
:100B40000895CF93DF931F92CDB7DEB7698361E03D
:100B5000CE0101960E94390581E090E00F90DF916F
:100B6000CF910895089580E090E0089580912F013D
:100B70008A3019F08C3019F0089562E002C060915B
:100B80002E0180EB92E00C94A105CF92DF92FF92B0
:100B90000F931F93CF93DF93D3E0C1E054E0F52E82
:100BA0009091C1018091C201981709F48DC080EB2A
:100BB00092E00E94710580932F0190E0FC013A972A
:100BC000EF30F10508F07DC0EC5CFF4F0C94680F2E
:100BD00080EB92E00E947105809100018C27809348
:100BE00000016FC080EB92E00E947105682F8AE0DF
:100BF0000E94340266C080EB92E00E9471058093EF
:100C0000D001811103C0C093D40106C0813021F40A
:100C10001092D401F092D0011092CF0152C080EB1B
:100C200092E00E9471058093D201811103C0C093AC
:100C3000D30106C0813021F41092D301D093D201A8
:100C40001092D1013EC080EB92E00E947105813884
:100C5000910559F08B38910509F0A2CF80EB92E015
:100C60000E947105809301019BCF80EB92E00E946E
:100C70007105909303018093020192CF87E00E9457
:100C80000B02182F88E00E940B02880F991F6C013D
:100C9000C10ED11C89E00E940B02880F991F880F9A
:100CA000991F8C010C0D111D8FE00E940B0243E077
:100CB000880F991F4A95E1F7800F911D80932E01AF
:100CC0006FCF10922F016CCFDF91CF911F910F91B9
:100CD000FF90DF90CF9008950E94820F1F920F9295
:100CE0000FB60F9211242F933F934F935F936F93FF
:100CF0007F938F939F93AF93BF93EF93FF938091D5
:100D0000070290910802A0910902B0910A02892B72
:100D10008A2B8B2B51F18091FE01E091FF01F09124
:100D200000029081892780838091070290910802B8
:100D3000A0910902B0910A02181619061A061B069C
:100D4000C4F48091070290910802A0910902B09129
:100D50000A020197A109B109809307029093080242
:100D6000A0930902B0930A0204C0809104010E947A
:100D70006402FF91EF91BF91AF919F918F917F910D
:100D80006F915F914F913F912F910F900FBE0F90F8
:100D90001F9018951F920F920FB60F9211242F9348
:100DA0003F934F935F936F937F938F939F93AF93F3
:100DB000BF93EF93FF9383E192E00E944E01FF9176
:100DC000EF91BF91AF919F918F917F916F915F91C3
:100DD0004F913F912F910F900FBE0F901F9018953C
:100DE0001F920F920FB60F9211242F938F939F9300
:100DF000EF93FF93E0912302F09124028081E09130
:100E00002902F0912A0282FD12C0908180912C0269
:100E10008F5F8F7320912D02821751F0E0912C0289
:100E2000F0E0ED5EFD4F958F80932C0201C0808134
:100E3000FF91EF919F918F912F910F900FBE0F9087
:100E40001F9018951F920F920FB60F9211242F9397
:100E50003F938F939F93AF93BF938091CB019091DA
:100E6000CC01A091CD01B091CE013091BB0126E023
:100E7000230F2D3720F40296A11DB11D05C029E8CE
:100E8000230F0396A11DB11D2093BB018093CB01BD
:100E90009093CC01A093CD01B093CE018091B70186
:100EA0009091B801A091B901B091BA010196A11D2C
:100EB000B11D8093B7019093B801A093B901B0938D
:100EC000BA01BF91AF919F918F913F912F910F9058
:100ED0000FBE0F901F9018951F920F920FB60F9292
:100EE00011242F933F934F935F936F937F938F932F
:100EF0009F93AF93BF93EF93FF938091B900887F47
:100F0000803609F49CC068F5883209F45BC090F41F
:100F1000803109F454C038F4882309F4F6C08830CD
:100F200009F44DC0F6C0883109F44CC0803209F490
:100F30005DC0EFC0803409F468C048F4803309F420
:100F400055C0883309F0E5C080939301D8C080353F
:100F500009F44FC0883509F45DC0883409F0D9C060
:100F6000D6C0883909F4C7C0A8F4883709F467C027
:100F700038F4883609F463C0803709F460C0C9C00A
:100F8000883809F4B8C0803909F45FC0803809F0A6
:100F9000C0C05BC0803B09F486C038F4803A09F4D5
:100FA00066C0883A09F47FC0B4C0803C09F4A7C089
:100FB000883C09F4A4C0883B09F48AC0AAC0809187
:100FC000B60110C09091B5018091B401981770F5E9
:100FD000E091B50181E08E0F8093B501F0E0EC5611
:100FE000FE4F80818093BB0085EC86C08093930187
:100FF0008EC0E091B50181E08E0F8093B5018091A4
:10100000BB00F0E0EC56FE4F80839091B5018091DB
:10101000B4016EC0E091B50181E08E0F8093B501FF
:101020008091BB00F0E0EC56FE4F80838091BD01C3
:1010300081116DC081E08093BC0184EA61C083E0CE
:101040008093BE0110929201CFCF809192018032A5
:1010500008F051C0E091920181E08E0F80939201DF
:101060008091BB00F0E0EE58FE4F8083BDCF85EC51
:101070008093BC001092BE0180919201803230F4C6
:10108000E0919201F0E0EE58FE4F108260919201E3
:1010900070E0E091C301F091C40182E791E009950D
:1010A0001092920136C084E08093BE0110927101CB
:1010B00010927001E091C501F091C60109958091EF
:1010C0007001811105C081E0809370011092500180
:1010D000E091710181E08E0F80937101F0E0E05B9F
:1010E000FE4F80818093BB009091710180917001CF
:1010F000981708F479CF85E88093BC000AC085EC86
:101100008093BC001092BE0104C0109293010E9413
:101110002F05FF91EF91BF91AF919F918F917F919B
:101120006F915F914F913F912F910F900FBE0F9054
:101130001F901895E3E1F2E01382128288EE93E0AB
:10114000A0E0B0E084839583A683B7832DE031E0EF
:101150003183208325EC30E03587248724EC30E090
:101160003787268720EC30E0318B208B21EC30E074
:10117000338B228B22EC30E0358B248B26EC30E055
:10118000378B268B118E128E138E148EE0EBF2E0CD
:101190001382128284839583A683B7838FE191E0C3
:1011A000918380830895789484B5826084BD84B5EA
:1011B000816084BD85B5826085BD85B5816085BD52
:1011C00080916E00816080936E001092810080910A
:1011D0008100826080938100809181008160809392
:1011E0008100809180008160809380008091B100B7
:1011F00084608093B1008091B00081608093B000E2
:1012000080917A00846080937A0080917A00826075
:1012100080937A0080917A008E7F80937A0080910B
:101220007A00806880937A001092C100809100015A
:101230008823A9F1E0912302F091240282E08083C7
:10124000E0911F02F09120021082E0912102F091C2
:10125000220288E0808310922B02E0912702F09115
:10126000280286E08083E0912502F09126028081A9
:1012700080618083E0912502F09126028081886060
:101280008083E0912502F09126028081806880832E
:10129000E0912502F091260280818F7D808384E198
:1012A0008093BA0086EA90E09093C6018093C501CE
:1012B00082EB90E09093C4018093C3011092C2012D
:1012C0001092C1011092C0011092BF011092BE0194
:1012D00081E08093BD011092BC0161E082E10E9437
:1012E000340261E083E10E9434028091B9008E7F74
:1012F0008093B9008091B9008D7F8093B90080E21E
:101300008093B80085E48093BC0085EC95E09093D1
:10131000C8018093C70186EB95E09093CA01809342
:10132000C90160E087E00E948F0260E088E00E94CF
:101330008F0260E089E00E948F0260E08FE00E94EF
:101340008F0261E08AE00E948F0261E083E00E94E8
:101350008F0261E086E00E948F0282E08093D001DC
:101360000BE011E02FB7F8948091CB019091CC0164
:10137000A091CD01B091CE012FBF8093E201909357
:10138000E301A093E401B093E5010093D5018091BE
:10139000D4018111ACC2E091D0018E2F90E0FC010C
:1013A0003297EA30F10508F0A2C2ED5BFF4F809161
:1013B000CF010C94680F811113C08091E2019091CC
:1013C000E301A091E401B091E5018093F6019093CF
:1013D000F701A093F801B093F9011093CF0187C2F0
:1013E000C090E201D090E301E090E401F090E501CB
:1013F0008091F6019091F701A091F801B091F90167
:10140000C81AD90AEA0AFB0A6091010170E08091CA
:1014100002019091030197FD019695958795869F0E
:101420009001879F300D969F300D1124C901330F15
:10143000AA0BBB0B8C159D05AE05BF0540F483E0E0
:101440000E9464021092D0011092CF0150C284E633
:1014500090E00E94540F6C9DC0016D9D900D7C9D8D
:10146000900D112488519C4F40C2882309F4A5CFC8
:10147000C090E201D090E301E090E401F090E5013A
:101480008091F6019091F701A091F801B091F901D6
:10149000C81AD90AEA0AFB0A6091010170E080913A
:1014A00002019091030197FD019695958795869F7E
:1014B0009001879F300D969F300D1124C901330F85
:1014C000AA0BBB0B8C159D05AE05BF0508F4B7CF65
:1014D00084E690E00E94540F6C9D90016D9D300D4C
:1014E0007C9D300D112480ED97E0821B930BFDC194
:1014F000882309F462CFC090E201D090E301E0902C
:10150000E401F090E5018091F6019091F701A0913E
:10151000F801B091F901A7019601281B390B4A0B7C
:101520005B0BCA01B901A0910201B0910301409186
:10153000010150E09D01B7FF02C02F5F3F4F35957D
:101540002795249FF001259FF00D349FF00D112465
:101550004F01FF0FAA08BB0886169706A806B90612
:1015600008F46DCF9D01B7FF02C02D5F3F4FF90119
:10157000F595E795F595E795E49F9001E59F300D8A
:10158000F49F300D1124032E000C440B550B0E94C8
:10159000FF0D2F5F2093CF0120FF36C080ED97E035
:1015A000A4C1811112C08091E2019091E301A09148
:1015B000E401B091E5018093F6019093F701A093C7
:1015C000F801B093F9011093CF018091CF018130E0
:1015D00009F08DC18091E2019091E301A091E401B5
:1015E000B091E5014091F6015091F7016091F80149
:1015F0007091F901841B950BA60BB70B85369105ED
:10160000A105B10508F01BCF88EE93E06EC18823D9
:1016100009F4D3CEC090E201D090E301E090E40160
:10162000F090E5018091F6019091F701A091F80109
:10163000B091F901C81AD90AEA0AFB0AC09102015D
:10164000D091030120900101312CC701B6010E9405
:10165000300E4B015C01BE010D2E000C880B990B66
:101660000E94320E20E030E040EC5FE30E94720EF8
:101670002B013C01B101032C000C880B990B0E943B
:10168000320E9B01AC01C301B2010E94720E9B019C
:10169000AC01C501B4010E946D0E18160CF4CFCE3A
:1016A000D7FD2396D595C795D595C795C29D900131
:1016B000C39D300DD29D300D1124032E000C440B20
:1016C000550BC701B60163CF811112C08091E201B1
:1016D0009091E301A091E401B091E5018093F601BE
:1016E0009093F701A093F801B093F9011093CF0103
:1016F0008091CF01813009F0FAC08091E201909190
:10170000E301A091E401B091E5014091F60150910F
:10171000F7016091F8017091F901841B950BA60BFC
:10172000B70B85369105A105B10508F088CE36CFF7
:10173000811112C08091E2019091E301A091E40136
:10174000B091E5018093F6019093F701A093F80121
:10175000B093F9011093CF018091CF01813009F04E
:10176000C6C08091E2019091E301A091E401B091A3
:10177000E5014091F6015091F7016091F8017091F7
:10178000F901841B950BA60BB70B0B97A105B105AF
:1017900008F055CE8CED95E0A8C0811112C0809163
:1017A000E2019091E301A091E401B091E501809301
:1017B000F6019093F701A093F801B093F90110930B
:1017C000CF018091CF01813009F091C08091E20179
:1017D0009091E301A091E401B091E5014091F601FF
:1017E0005091F7016091F8017091F901841B950BFC
:1017F000A60BB70B0B97A105B10508F020CE8EEE16
:1018000092E073C0811112C08091E2019091E301D6
:10181000A091E401B091E5018093F6019093F70166
:10182000A093F801B093F9011093CF018091CF01FB
:10183000813009F05CC08091E2019091E301A091B8
:10184000E401B091E5014091F6015091F7016091FA
:10185000F8017091F901841B950BA60BB70B029749
:10186000A105B10508F0EBCD95CF811112C0809193
:10187000E2019091E301A091E401B091E501809330
:10188000F6019093F701A093F801B093F90110933A
:10189000CF018091CF01813051F58091E20190918B
:1018A000E301A091E401B091E5014091F60150916E
:1018B000F7016091F8017091F901841B950BA60B5B
:1018C000B70B893C9105A105B10508F0B8CD0E9480
:1018D000BF0D28EE33E040E050E00E94CD0DDC016A
:1018E000CB0188519C4FAF4FBF4F0E94CB028091DC
:1018F000D3018111F3C08091D201833009F483C0F8
:10190000843009F4B9C0823009F0E8C08091D10177
:10191000C090E201D090E301E090E401F090E50195
:1019200081110BC0C092FA01D092FB01E092FC0140
:10193000F092FD011093D10166C08091FA0190915F
:10194000FB01A091FC01B091FD01C81AD90AEA0A75
:10195000FB0AC0910201D091030120900101312CBA
:10196000C701B6010E94300E4B015C01BE010D2E75
:10197000000C880B990B0E94320E20E030E040EC06
:101980005FE30E94720E2B013C01B101032C000C9D
:10199000880B990B0E94320E9B01AC01C301B2016E
:1019A0000E94720E9B01AC01C501B4010E946D0E34
:1019B000181644F486E00E9464021092D20110923C
:1019C000D10121C0D7FD2396D595C795D595C7954B
:1019D000C29D9001C39D300DD29D300D1124032E68
:1019E000000C440B550BC701B6010E94FF0D2F5F81
:1019F0002093D10120FF03C080E890E002C080E086
:101A000090E00E94D5042091D1018091E201909153
:101A1000E301A091E401B091E5012223C9F14091D5
:101A2000FA015091FB016091FC017091FD016C0184
:101A30007D01C41AD50AE60AF70AB701A60180910A
:101A400002019091030197FD019695958795092EC6
:101A5000000CAA0BBB0B84179507A607B70738F431
:101A600080E090E00E94D5041092D20137C080E857
:101A700090E00E94D50432C02091D1018091E20112
:101A80009091E301A091E401B091E50121110BC017
:101A90008093FA019093FB01A093FC01B093FD01A8
:101AA0001093D1011BC04091FA015091FB0160914C
:101AB000FC017091FD016C017D01C41AD50AE60A92
:101AC000F70AB701A601809102019091030197FDE9
:101AD00003969595879595958795B9CF0E94D801DE
:101AE00041CC8F929F92AF92BF92CF92DF92EF92B2
:101AF000FF92CF93DF93EC01688179818A819B818A
:101B0000611571058105910521F464E279ED8BE59C
:101B100097E02DE133EF41E050E00E94CD0D490107
:101B20005A019B01AC01A7EAB1E40E94EC0D6B01E4
:101B30007C01ACEEB4EFA50194010E94FA0DDC012A
:101B4000CB018C0D9D1DAE1DBF1DB7FF03C00197BE
:101B5000A109B04888839983AA83BB83BC01CD01C6
:101B60009F77DF91CF91FF90EF90DF90CF90BF9064
:101B7000AF909F908F9008950E94710D089585E019
:101B800091E00E94710D0895609305017093060124
:101B900080930701909308010895052E97FB1EF48A
:101BA00000940E94E40D57FD07D00E94FF0D07FC32
:101BB00003D04EF40C94E40D50954095309521954A
:101BC0003F4F4F4F5F4F0895909580957095619569
:101BD0007F4F8F4F9F4F08950E94210EA59F900D1C
:101BE000B49F900DA49F800D911D11240895B7FFFF
:101BF0000C94EC0D0E94EC0D821B930B0895A1E256
:101C00001A2EAA1BBB1BFD010DC0AA1FBB1FEE1F76
:101C1000FF1FA217B307E407F50720F0A21BB30BC1
:101C2000E40BF50B661F771F881F991F1A9469F73D
:101C300060957095809590959B01AC01BD01CF0199
:101C40000895A29FB001B39FC001A39F700D811D95
:101C50001124911DB29F700D811D1124911D0895B5
:101C6000E89409C097FB3EF4909580957095619536
:101C70007F4F8F4F9F4F9923A9F0F92F96E9BB27EC
:101C80009395F695879577956795B795F111F8CF68
:101C9000FAF4BB0F11F460FF1BC06F5F7F4F8F4FD3
:101CA0009F4F16C0882311F096E911C0772321F0C9
:101CB0009EE8872F762F05C0662371F096E8862F61
:101CC00070E060E02AF09A95660F771F881FDAF7B8
:101CD000880F9695879597F908950E94DF0E08F46E
:101CE0008FEF08950E94850E0C941A0F0E940C0F1E
:101CF00038F00E94130F20F0952311F00C94030F7D
:101D00000C94090F11240C944E0F0E942B0F70F3AA
:101D1000959FC1F3950F50E0551F629FF001729F90
:101D2000BB27F00DB11D639FAA27F00DB11DAA1F9F
:101D3000649F6627B00DA11D661F829F2227B00DEC
:101D4000A11D621F739FB00DA11D621F839FA00D77
:101D5000611D221F749F3327A00D611D231F849FC7
:101D6000600D211D822F762F6A2F11249F5750401E
:101D70009AF0F1F088234AF0EE0FFF1FBB1F661F99
:101D8000771F881F91505040A9F79E3F510580F062
:101D90000C94030F0C944E0F5F3FE4F3983ED4F382
:101DA000869577956795B795F795E7959F5FC1F706
:101DB000FE2B880F911D9695879597F90895990F99
:101DC0000008550FAA0BE0E8FEEF16161706E80705
:101DD000F907C0F012161306E407F50798F0621B26
:101DE000730B840B950B39F40A2661F0232B242BFB
:101DF000252B21F408950A2609F4A140A6958FEF1A
:101E0000811D811D089597F99F6780E870E060E06B
:101E100008959FEF80EC089500240A941616170683
:101E200018060906089500240A94121613061406CB
:101E300005060895092E0394000C11F4882352F02E
:101E4000BB0F40F4BF2B11F460FF04C06F5F7F4FE6
:101E50008F4F9F4F089557FD9058440F551F59F0CD
:101E60005F3F71F04795880F97FB991F61F09F3F87
:101E700079F087950895121613061406551FF2CFB0
:101E80004695F1DF08C0161617061806991FF1CF00
:101E900086957105610508940895E894BB27662727
:101EA0007727CB0197F9089597FB072E16F4009436
:101EB00007D077FD09D00E946E0F07FC05D03EF4D5
:101EC000909581959F4F0895709561957F4F0895E6
:101ED000EE0FFF1F0590F491E02D0994AA1BBB1B88
:101EE00051E107C0AA1FBB1FA617B70710F0A61B1A
:101EF000B70B881F991F5A95A9F780959095BC013B
:101F0000CD01089581E090E0F8940C94870FF89447
:021F1000FFCF01
:101F120001321400FF01000000000000006F01DC2C
:101F2200000701B601380116012A0100000000A1D4
:0E1F3200058D05B30561058505710562050085
:107800000C94343C0C94513C0C94513C0C94513CE1
:107810000C94513C0C94513C0C94513C0C94513CB4
:107820000C94513C0C94513C0C94513C0C94513CA4
:107830000C94513C0C94513C0C94513C0C94513C94
:107840000C94513C0C94513C0C94513C0C94513C84
:107850000C94513C0C94513C0C94513C0C94513C74
:107860000C94513C0C94513C11241FBECFEFD8E036
:10787000DEBFCDBF11E0A0E0B1E0EAE8FFE702C063
:1078800005900D92A230B107D9F712E0A2E0B1E065
:1078900001C01D92AD30B107E1F70E942D3D0C945F
:1078A000C33F0C94003C982F95959595959595958B
:1078B000905D8F708A307CF0282F295A8091C0000B
:1078C00085FFFCCF9093C6008091C00085FFFCCF60
:1078D0002093C6000895282F205DF0CF982F809127
:1078E000C00085FFFCCF9093C6000895EF92FF92F1
:1078F0000F931F93EE24FF2487018091C00087FD22
:1079000017C00894E11CF11C011D111D81E2E8164D
:1079100081EAF80687E0080780E0180770F3E09135
:107920000401F091050109958091C00087FFE9CF1E
:107930008091C6001F910F91FF90EF9008950E94D3
:10794000763C982F8091C00085FFFCCF9093C600B5
:1079500091362CF490330CF09053892F089597555D
:10796000892F08951F930E949F3C182F0E949F3CCF
:107970001295107F810F1F9108951F93182F882350
:1079800021F00E94763C1150E1F71F9108951F935A
:10799000182F0E94763C803249F0809103018F5F5E
:1079A000809303018530C1F01F9108958091C0003C
:1079B00085FFFCCF84E18093C6008091C00085FFE5
:1079C000FCCF1093C6008091C00085FFFCCF80E102
:1079D0008093C6001F910895E0910401F091050184
:1079E00009951F9108950E94763C803241F0809164
:1079F00003018F5F80930301853081F008958091AA
:107A0000C00085FFFCCF84E18093C6008091C00058
:107A100085FFFCCF80E18093C6000895E0910401CA
:107A2000F09105010995089548EC50E08823A1F0F4
:107A30002D9A28EE33E0FA013197F1F721503040CA
:107A4000D1F72D9828EE33E0FA013197F1F7215064
:107A50003040D1F7815061F708953F924F925F9285
:107A60006F927F928F929F92AF92BF92CF92DF924E
:107A7000EF92FF920F931F93CF93DF93000082E06A
:107A80008093C00080E18093C4001092C50088E11B
:107A90008093C10086E08093C2005098589A259A3E
:107AA00081E00E94143D24E1F22E9EE1E92E85E959
:107AB000D82E0FE0C02E10E1B12EAA24A394B1E479
:107AC0009B2EA6E58A2EF2E57F2EE0E26E2E79E46B
:107AD000572E63E5462E50E5352E0E94763C8033C6
:107AE000B1F18133B9F1803409F46FC0813409F404
:107AF00076C0823409F485C0853409F488C08035A5
:107B000031F1823521F1813511F1853509F485C0D6
:107B1000863509F48DC0843609F496C0843709F49B
:107B200003C1853709F472C1863709F466C08091B4
:107B300003018F5F80930301853079F6E0910401A2
:107B4000F091050109950E94763C803351F60E9420
:107B5000F33CC3CF0E94763C803249F78091C0004D
:107B600085FFFCCFF092C6008091C00085FFFCCF5E
:107B70009092C6008091C00085FFFCCF8092C60025
:107B80008091C00085FFFCCF7092C6008091C0003C
:107B900085FFFCCF6092C6008091C00085FFFCCFBE
:107BA0005092C6008091C00085FFFCCF4092C60075
:107BB0008091C00085FFFCCF3092C6008091C0004C
:107BC00085FFFCCFB092C60088CF0E94763C8638F5
:107BD00008F4BDCF0E94763C0E94F33C7ECF0E9409
:107BE000763C803809F49CC0813809F40BC1823896
:107BF00009F430C1883909F48FC080E00E94C73C85
:107C00006CCF84E10E94BD3C0E94F33C66CF85E0CE
:107C10000E94BD3C0E94F33C60CF0E94763C809362
:107C200006010E94763C809307010E94F33C55CFE9
:107C30000E94763C803309F411C183E00E94BD3C70
:107C400080E00E94C73C49CF0E94763C80930902A5
:107C50000E94763C8093080280910C028E7F809374
:107C60000C020E94763C853409F409C18091080217
:107C700090910902892B89F000E010E00E94763C87
:107C8000F801E85FFE4F80830F5F1F4F809108026D
:107C9000909109020817190788F30E94763C8032F8
:107CA00009F045CF80910C0280FFF5C0609106017C
:107CB00070910701660F771F7093070160930601AB
:107CC000A0910802B09109021097C9F0E8E0F1E034
:107CD0009B01AD014E0F5F1FF999FECF32BD21BD53
:107CE000819180BDFA9AF99A2F5F3F4FE417F5070B
:107CF00099F76A0F7B1F70930701609306018091CB
:107D0000C00085FFFCCFF092C6008091C00085FFC7
:107D1000FCCFB092C600E1CE83E00E94C73CDDCE2E
:107D200082E00E94C73CD9CE0E94763C8093090233
:107D30000E94763C80930802809106019091070191
:107D4000880F991F90930701809306010E94763C4B
:107D5000853409F49AC080910C028E7F80930C02C6
:107D60000E94763C803209F0B8CE8091C00085FF39
:107D7000FCCFF092C600A0910802B09109021097C2
:107D8000C1F180910C02082F0170182F1695117007
:107D9000E0910601F0910701AF014F5F5F4FBA011B
:107DA00020E030E00023B1F4112339F49491809164
:107DB000C00085FFFCCF9093C6002F5F3F4FCB01E3
:107DC0000196FA012A173B0780F4BC014F5F5F4F11
:107DD000002351F3F999FECFF2BDE1BDF89A90B5B9
:107DE0008091C00085FFFCCFE6CF709307016093C0
:107DF00006018091C00085FDE5CE8091C00085FF21
:107E0000F8CFE0CE81E00E94C73C67CE0E94763C6E
:107E1000803209F08CCE8091C00085FFFCCFF092BB
:107E2000C6008091C00085FFFCCFE092C600809123
:107E3000C00085FFFCCFD092C6008091C00085FFB6
:107E4000FCCFC092C6008091C00085FFFCCFB092ED
:107E5000C60043CE80E10E94C73C3FCE0E94763CE4
:107E60000E94763C182F0E94763C112309F483C0AF
:107E7000113009F484C08FE00E94C73C2ECE80915F
:107E80000C02816080930C02F1CE80910C02816023
:107E900080930C0265CF809107018823880F880B9F
:107EA0008A2180930B028091060190910701880F2F
:107EB000991F90930701809306018091080280FF2B
:107EC00009C08091080290910902019690930902DD
:107ED00080930802F894F999FECF1127E0910601EA
:107EE000F0910701C8E0D1E0809108029091090269
:107EF000103091F40091570001700130D9F303E084
:107F000000935700E8950091570001700130D9F3B4
:107F100001E100935700E8950990199000915700EE
:107F200001700130D9F301E000935700E8951395F3
:107F3000103498F011270091570001700130D9F3E7
:107F400005E000935700E89500915700017001305B
:107F5000D9F301E100935700E8953296029709F0B2
:107F6000C7CF103011F00296E5CF11248091C000E8
:107F700085FFC5CEC8CE8EE10E94C73CAECD85E957
:0A7F80000E94C73CAACDF894FFCF81
:027F8A00800075
:040000030000780081
:00000001FF
